:020000040800F2
:10000000F80A002089010008FD2F000819200008C7
:10001000852F00083D0500081D3000080000000085
:100020000000000000000000000000000530000893
:1000300041050008000000000130000809300008F8
:10004000A3010008A3010008A3010008A301000800
:10005000A3010008A3010008A3010008A3010008F0
:10006000A3010008A3010008A3010008A3010008E0
:10007000A3010008A3010008A3010008A3010008D0
:10008000A3010008A3010008A3010008A3010008C0
:10009000A3010008A3010008A3010008A3010008B0
:1000A000A3010008A3010008A3010008A3010008A0
:1000B00011300008A3010008A3010008A3010008F3
:1000C000A3010008A3010008A3010008A301000880
:1000D000A3010008A3010008A3010008A301000870
:1000E000A3010008A3010008A301000800F002F822
:1000F00000F03AF80AA090E8000C82448344AAF188
:100100000107DA4501D100F02FF8AFF2090EBAE885
:100110000F0013F0010F18BFFB1A43F0010318473B
:10012000046C0000246C0000103A24BF78C878C129
:10013000FAD8520724BF30C830C144BF04680C60ED
:10014000704700000023002400250026103A28BF35
:1001500078C1FBD8520728BF30C148BF0B60704739
:100160001FB51FBD10B510BD00F044F81146FFF7D4
:10017000F7FF02F055FF00F062F803B4FFF7F2FF5B
:1001800003BC00F065F800000948804709480047B3
:10019000FEE7FEE7FEE7FEE7FEE7FEE7FEE7FEE737
:1001A000FEE7FEE704480549054A064B7047000094
:1001B0000D300008ED000008F8040020F80A0020C7
:1001C000F8060020F806002070477047704710B509
:1001D00000F008F8006810BD10B5044600F002F801
:1001E000046010BD00487047580000200048704768
:1001F000580000207546FFF7F9FFAE460500694636
:10020000534620F00700854618B020B5FFF7CAFF17
:10021000BDE820404FF000064FF000074FF0000807
:100220004FF0000BAC46ACE8C009ACE8C009ACE844
:10023000C009ACE8C00921F007018D46704710B530
:100240000446AFF300802046BDE81040FFF795BF9D
:1002500001491820ABBEFEE72600020070470000EF
:100260002DE9F04389B040F2D0080026C2F2000820
:10027000CBF680764046002132464FF07E53002474
:100280004FF07E5503F0F8FF4046012132464FF013
:100290007E5303F0F1FF08F1180948460021324669
:1002A0004FF07E5304F026F946F6642040F2901693
:1002B000C0F60000C2F20006CDE900403046002141
:1002C00000220223029504F065FA46F6A420C0F647
:1002D0000000CDE9004030460021012202230295B2
:1002E00004F058FA46F68420C0F60000CDE900403C
:1002F0003046002102220223029504F04BFA46F612
:100300007420C0F60000CDE90040304600210322F1
:100310000223029504F03EFA46F69420C0F600004F
:10032000CDE900403046002104220223029504F06A
:1003300031FA46F6B420C0F60000CDE90040304660
:10034000012105220123029504F024FA46F6E42057
:10035000C0F60000CDE9004030460121062202230C
:10036000029504F017FA46F6CC20C0F60000CDE95D
:1003700000403046012107220123029504F00AFAC9
:1003800046F6C020C0F60000CDE90040304601210D
:1003900008220123029504F0FDF946F6D820C0F6A4
:1003A0000000CDE9004030460121092201230295D9
:1003B00004F0F0F946F6085040F25827C0F6000065
:1003C000C2F20007CDE90040384600210022132385
:1003D000029504F0DFF946F60C50C0F60000CDE9B6
:1003E00000403846002101221323029504F0D2F97F
:1003F00046F61050C0F60000CDE900403846002116
:1004000002221323029504F0C5F946F62050C0F6E7
:100410000000CDE900403846002103221323029555
:1004200004F0B8F946F61C50C0F60000CDE90040D3
:100430003846002104221323029504F0ABF946F656
:100440001850C0F60000CDE90040384600210522D2
:100450001323029504F09EF946F61450C0F60000EE
:10046000CDE900403846002106221323029504F00E
:1004700091F91920089046F6743040F2301540F298
:100480008C44C0F600008C21C8223423C2F200053F
:10049000C2F20004CDE90093CDE90262CDE9047116
:1004A00006902846012142461823079404F0E4F9F7
:1004B0002846062104F030F928460221012204F0E2
:1004C00097F928460321032204F092F928460021D7
:1004D000012204F08DF928460121042209B0BDE86B
:1004E000F04304F085B9000070B540F2D005026811
:1004F000C2F2000506460C462846002104F03AF9EF
:1005000072682846012104F035F940F23016C2F233
:100510000006304603F048FC304603F029FD012870
:1005200005DB40F23010C2F2000003F06BFA05F177
:100530001800002103F00EFD206070BDFEE70000F2
:1005400070470000EFF3108072B600BFFEE70000B6
:10055000B0B5044600F026F9054640F20000C2F2AC
:1005600000000078611C18BF044400BF00F01AF9B5
:10057000401BA042FAD3B0BD2DE9F04F82B00E6807
:10058000002E00F0038141F20042C4F20102042374
:1005900040F2004E904208BF03234FF6FF7CC4F2A6
:1005A000010E009300240123C1F2100C4FF0000A49
:1005B0004FF0000949E000BF012704F00C030F22AF
:1005C0009A402BEA020207FA03F34FEA9A051A430C
:1005D00046F82520D1F804B040F20C455FEACB2262
:1005E000DEF8082054BF22EA080242EA0802C4F2F8
:1005F0000105CEF808202A685FEA8B2354BF22EA5F
:10060000080242EA08022A605FEA8B33DEF804201F
:1006100054BF22EA080242EA08025FEACB33CEF86E
:100620000420DEF800204FF0010354BF22EA080244
:1006300042EA0802CEF800200E680AF1010A36FAF2
:100640000AF204F1040400F0A18003FA0AF816EAA1
:10065000080FF1D04E68664512DC122E56D8DFE83E
:1006600006F0350B45495555555555555555555574
:100670005555554D510000BFD1F80C9046E000BFD4
:100680004FF6FF72C1F2210296420FDC0022C1F246
:10069000110296421AD00022C1F21202964215D0DF
:1006A0000022C1F22102964210D02FE00022C1F2B6
:1006B000220296420AD00022C1F23102964205D0AF
:1006C0000022C1F23202964220D100BF8A684AB1AC
:1006D000012A14BFC0F81480C0F810804FF0080938
:1006E00014E000BF4FF0040910E000BFCA6802F137
:1006F00008090BE04FF0000908E000BFCA6802F1EA
:10070000040903E0CA6802F10C0900BF224606464C
:10071000BAF1080F24BF203A043637680F259540F8
:1007200027EA050509FA02F22A433260CA79D2069D
:100730007FF582AF41F21803C4F202031A68AEF5E6
:100740007E7642F001021A601A6802F001020192FC
:10075000019A2AF0030256F802B040F60002C4F2F1
:100760000102904210D040F60042C4F201029042D1
:100770003FF422AF41F20002C4F20102009F904216
:1007800008BF022719E700BF002716E702B0BDE83F
:10079000F08F0000C26802EA0103914341EA03417D
:1007A0000161704740F2F440C2F2000000687047F7
:1007B00070B5B8B3044690F83D0028B9002084F81D
:1007C0003C00204600F00CFB242084F83D0020680B
:1007D000016821F001010160016841F400410160FC
:1007E000016821F40041016000F0FCFC48F2804106
:1007F000C0F21E0140F60013D4F804E088424FF026
:100800000001C0F23D0348F2A16C4FF0000238BF76
:1008100001219842C0F2010C38BF0122E64538BFE1
:100820000A460AB1012070BD4DF68361C4F21B3146
:10083000A0FB01122168950C4B684FF4967623F0CB
:100840003F0343EA9243754344F6D3564B60C1F2EB
:1008500062060B6AA5FB0656B50923F03F03E64581
:1008600038BF950C6A1C1A430A62CA6948F2A0662E
:100870004CF6FF73C0F20106B64522EA03020BD81C
:1008800001384FEA4E03B0FBF3F001306FF31F3035
:10089000042898BF04201EE0A368013863B119231F
:1008A0000EFB03F3B0FBF3F001306FF31F3078B1B0
:1008B00000F5804008E000BF0EEB4E03B0FBF3F004
:1008C00001306FF31F3028B100F5004003E000BF96
:1008D000012000E001201043C8610868D4E9072323
:1008E00020F0C000104318430860886848F2FF32C7
:1008F00004F10C0690434CCE18431043A569886060
:10090000C86820F0FF0030432843C860086840F002
:100910000100086000202021206484F83D1020633D
:1009200084F83E0070BD00002DE9F04F85B004460C
:100930000020994616460F460490FFF733FF94F8BF
:100940003D10202927D10546206800BF816989070D
:100950001CD5FFF727FF411B20681A29F6D38169B0
:100960008907F3D500202021206384F83D1084F806
:100970003E00206C04F13C0A40F02000206402207C
:1009800000218AF8001005B0BDE8F08FA2461AF8E1
:100990003C1F012904D1022005B0BDE8F08F00BF43
:1009A00001228AF800200368DDE90F180E9ADB07A0
:1009B00003D1036843F001030360036823F4006379
:1009C0000360222084F83D00402084F83E0000208F
:1009D000206462626185608D394620850020CFF6F3
:1009E000FF70E062204632464B46CDF8008001950C
:1009F00001F014FB20B1012005B0BDE8F08F00BF6D
:100A0000208D022810D0012824D0002838D10020C1
:100A100003902068416903918169039103990168FA
:100A200041F40071016037E02068016841F4006121
:100A30000160EFF3108072B60020039020684169D6
:100A40000391816903910399016821F48061016038
:100A500062B621E02068016821F480610160EFF353
:100A6000108072B60020039020684169039181696B
:100A700003910399016841F40071016062B60BE0D3
:100A80002068016841F4806101600021039141699F
:100A90000391806903900398208D002800F0D48092
:100AA000042740F250094BF2895BC0F20107C2F201
:100AB0000009C1F2F84B232617E000BF204641464B
:100AC0002A4601F055FD002895D12068616A006929
:100AD0000870606A218D01306062481E2085618D3A
:100AE00001396185010400F0AF8080B2032867D826
:100AF000022800F089800128E0D0204639460022F3
:100B00004346009501F0DAFB00287FF474AF2068BB
:100B1000016821F480610160EFF3108072B62068F3
:100B2000616A00690870606A218D01300139606274
:100B30002185618D01396185D9F80010C908A1FBB3
:100B40000B12110A7143049104990139049104991B
:100B5000002900F0858021684A6952071ED4049953
:100B6000013904910499002900F07A8021684A69CA
:100B7000520713D4049901390491049900296FD0C4
:100B800021684A69520709D40499013904910499EA
:100B9000002965D021684A695207D5D50A6842F410
:100BA00000720A6009690170606A218D013060621B
:100BB000481E2085608D0138608562B685E700BFDC
:100BC000204641462A4601F0D3FC00287FF413AFAB
:100BD0002068616A00690870606A2268411C208D83
:100BE000616201382085638D013B638553695B0732
:100BF0007FF578AF80B2032803D1106820F48060BD
:100C00001060106964E700BF204639460022434661
:100C1000009501F053FB00287FF4EDAEEFF3108058
:100C200072B62068616A026842F40072026000696C
:100C30000870606A218D01306062481E2085608DD9
:100C40000138608562B640E7202084F83D0000202E
:100C500084F83E0000218AF8001005B0BDE8F08F4E
:100C600000202021206384F83D1084F83E00206C91
:100C700040F02000206462B6012000218AF80010B4
:100C800005B0BDE8F08F00002DE9F04383B0994630
:100C900016460F460446FFF785FD94F83D102029BF
:100CA00020D10546206800BF8169890716D5FFF766
:100CB00079FD411B20681A29F6D381698907F3D58C
:100CC00000202021206384F83D1084F83E00216C30
:100CD00041F02001216484F83C0003E094F83C10CA
:100CE000012903D1022003B0BDE8F083012284F87A
:100CF0003C200368DDE90B180A9ADB0703D103687F
:100D000043F001030360036823F4006303602120C0
:100D100084F83D00402084F83E0000202064626298
:100D20006185608D394620850020CFF6FF70E06236
:100D3000204632464B46CDF80080019501F0FAF985
:100D400020B1012003B0BDE8F08300BF208D98B929
:100D5000204641462A4601F051FA88B3206C042807
:100D6000EFD12068016841F400710160012003B0F7
:100D7000BDE8F0830004EBD0204641462A4601F04E
:100D80003FFC0028EAD1616A2268084610F8013B5E
:100D90001361238D6062581E2085678D013F678532
:100DA00057697F07E6D50704E4D048781061881CAE
:100DB0006062981E2085618D01396185DAE700BF88
:100DC0002068016841F400710160202084F83D0032
:100DD000002084F83E0084F83C0003B0BDE8F083B6
:100DE00010B586B0006845F60001C4F200018842E3
:100DF0004FF00001CDE90411CDE9021134D045F2E4
:100E00000041C4F20001884252D141F21804C4F2F8
:100E10000204206802A940F008002060206800F069
:100E20000800019001984FF4407002901220039046
:100E30000320059040F60040C4F20100FFF79CFB40
:100E40000420C4F20100016841F0E06141F00201B8
:100E50000160606840F400106060606800F4001099
:100E60000190019806B010BD41F21804C4F20204CA
:100E7000206802A940F008002060206800F0080007
:100E8000019001984FF440600290122003900320DB
:100E9000059040F60040C4F20100FFF76DFB60686A
:100EA00040F480006060606800F480000190019868
:100EB00006B010BD40F2000040F2F441C2F2000062
:100EC000C2F2000100780A68104408607047000010
:100ED00080B542F20000C4F20200016841F0100146
:100EE0000160032000F08EF80F2000F005F800F0FC
:100EF00027F8002080BD000070B540F20006C2F265
:100F0000000640F250013278C2F200014FF47A73C9
:100F10000968B3FBF2F20446B1FBF2F1084600F0B7
:100F20004FFB0F2C4FF0010508D838B94FF0FF30B8
:100F300021460022002500F039F87460284670BD73
:100F400082B041F21800C4F202000168022241F0AE
:100F500001010160016801F00101019101994168FD
:100F600041F080514160406800F08050009000984E
:100F70000420C4F20100016862F31A61016002B04A
:100F800070470000002848BF7047C1B200F01F0042
:100F9000012202FA00F04EF20012CEF2000242EA02
:100FA000D10121F0030108607047000010B54EF632
:100FB0000C5CCEF2000CDCF80030C3F3022E8EF095
:100FC0000704042C28BF0424BEF103034FF0FF3EA6
:100FD0000EFA04F438BF0023A14399400EFA03F33C
:100FE0009A43114300F00F0200F160430901043AF3
:100FF00003F564436244002848BF02F10C031970F2
:1010000010BD00004EF60C51CEF200010A684FF6FA
:10101000FF031A4060F30A2242F0806040F0FD7046
:10102000086070472DE9F04381B0002800F085800A
:1010300042F20008C4F202080446D8F800000D4647
:1010400000F0070088420CD2D8F8000020F007001A
:101050002843C8F80000D8F8000000F00700A842B4
:101060006BD1206841F204098107C4F2020917D547
:10107000410705D5D9F8001041F4E061C9F8001026
:10108000010705D5D9F8001041F46051C9F80010E6
:10109000D9F80010A26821F0F0011143C9F800103E
:1010A000C00741D1D8F8000000F00700A8420CD9D1
:1010B000D8F8000020F007002843C8F80000D8F84E
:1010C000000000F00700A84237D12068410707D58B
:1010D000D9F80010E26821F4E0611143C9F800106A
:1010E000000708D5D9F80000216920F4605040EAD3
:1010F000C100C9F80000D9F8002002F00C0008284F
:1011000041F20020C0F27A0050D146F65223C2F3D9
:101110008341C0F60003595CD2033BD440F6001073
:10112000C0F23D00484341E0606802280AD001282F
:101130002AD159F8041C890308D4012001B0BDE864
:10114000F08300BF59F8041C8901F6D5D9F80010C6
:1011500021F003010843C9F80000FFF723FB06460E
:1011600041F28837D9F80000616800F00C00B0EB5C
:10117000810F97D0FFF716FB801BB842F2D90320EE
:1011800001B0BDE8F08300BF59F8041C8907D4D52D
:10119000DCE700BFD9F8002046F65023C2F34042F6
:1011A000C0F600039A5C4843B0FBF2F0D9F8001097
:1011B00046F63822C1F30311C0F60002515C40F23A
:1011C000500220FA01F140F20400C2F2000000686F
:1011D000C2F200021160FFF78FFE002001B0BDE8EF
:1011E000F083000040F2500041F20401C2F200001E
:1011F000C4F202010068096846F64822C1F30221E0
:10120000C0F60002515CC840704700002DE9F04173
:1012100082B0002868D00446007841F20006C0077A
:10122000C4F2020625D0706800F00C0004281BD020
:10123000706800F00C00082802D17068C00313D455
:101240006068002800F06881B0F5A02F00F07C8174
:10125000B0F5803F00F07C81306820F48030306051
:10126000306820F4802076E13068800301D5606822
:10127000D0B32078800718D5706810F00C0F07D015
:10128000706800F00C0008286ED17068C0036BD441
:101290003068800702D52069012825D1306861694E
:1012A00020F0F80040EAC1003060207800071FD429
:1012B0002078400732D4E56995B1706800F00C00E1
:1012C000082840F08F80012D0ED07068216A00F44C
:1012D00080328A4208D1616A00F47010884203D1DA
:1012E000002002B0BDE8F081012002B0BDE8F0812D
:1012F000A069002862D00020C4F242200121C0F879
:101300008014FFF74FFA0546706A800700F18C8061
:10131000FFF748FA401B0228F6D92AE1F06910F0DD
:10132000805808D1F06940F08050F061F06900F019
:1013300080500090009847F20007C4F20007386818
:10134000C00529D4386840F480703860FFF72AFA65
:10135000054600BF3868C0051ED4FFF723FA401BBE
:101360006428F7D905E100BF2069002840F2000099
:10137000C4F2422000F0828001210160FFF712FADE
:10138000054600BF306880073FF588AFFFF70AFACF
:10139000401B0228F6D9ECE0E068002800F08080CD
:1013A000052800F09780012800F09880306A20F02E
:1013B00001003062306A20F0040092E00020C4F2A4
:1013C00042200021C0F88014FFF7ECF9054600BF69
:1013D000706A80077FF56CAFFFF7E4F9401B0228C5
:1013E000F6D9C6E00027C4F2422700203866FFF78E
:1013F000D9F9022D05460BD13068800140F1BE803D
:10140000FFF7D0F9401B02284FF00300F4D968E73A
:10141000306880017FF564AFFFF7C4F9401B0228F4
:101420004FF00300F4D95CE740F25000C2F2000034
:10143000006844F6D351C1F26201A0FB0101480AE1
:10144000019000BF00BF0198411E002801913FF4A8
:101450002FAF00BF0198411E002801913FF428AF33
:1014600000BF0198411E002801913FF421AF00BF49
:101470000198411E00280191E4D119E70021016083
:10148000FFF790F9054600BF306880077FF50DAF84
:10149000FFF788F9401B02284FF00300F4D920E73A
:1014A000306A20F001003062306A20F004003062BF
:1014B000FFF778F9054641F2883700BF306A8007A8
:1014C00020D5FFF76FF9401BB8424FF00300F5D964
:1014D00007E700BF306A40F004003062306A40F035
:1014E00001003062FFF75EF9054641F2883700BF20
:1014F000306A800706D4FFF755F9401BB842F7D988
:1015000037E000BFB8F1000F7FF4D5AEF06920F0EE
:101510008050F061CFE600BF306820F4803030604A
:10152000306820F480203060FFF73CF9054600BFAA
:10153000306880037FF59DAEFFF734F9401B6428C7
:101540004FF00300F4D9CCE6306840F480203060DE
:10155000306840F480303060FFF724F9054600BF62
:10156000306880033FF585AEFFF71CF9401B642807
:10157000F6D9032002B0BDE8F08100BF206AB0F5C3
:10158000803F05D17168A26821F400311143716078
:101590007168626A21F4741111430843706001207C
:1015A0003866FFF7FFF80446306880013FF598AED3
:1015B000FFF7F8F8001B02284FF00300F4D990E67B
:1015C000411E0020B0EB116F1CBF012070474EF28E
:1015D0001002CEF2000251604EF62351CEF200010D
:1015E000F0230B7007219060116070477047000076
:1015F0007047000010B590F83C20012A4FF002021D
:1016000033D080F83D200268D2F804E0D2F808C058
:101610000C682EF07003234340F2FF74C4F2000400
:10162000A24253600ADCB2F1804F13D040F2004373
:10163000C4F200039A420DD011E000BF42F600430D
:10164000C4F201039A4205D040F60003C4F200033D
:101650009A4204D149682CF080031943916001211A
:10166000002280F83D1080F83C20104610BD00009C
:10167000002804BF0120704710B5044690F83D00D3
:1016800028B9002084F83C00204600F06FF80220C2
:1016900084F83D00206840F2FF730268C4F2000342
:1016A00042F6004C9842C4F2010C15DCB0F1804FB8
:1016B0001AD040F20041C4F20001884214D098428E
:1016C00018DCB0F1804F1DD040F20041C4F200019F
:1016D000884217D01AE000BF604505D040F60001EF
:1016E000C4F200018842EAD1A16822F070020A43E4
:1016F0009842E6DD604505D040F60001C4F20001E5
:10170000884203D1216922F440720A43A36922F07E
:101710008001D4F804E0E268194360450160C262C8
:10172000C0F828E002D16169CCF830100121416194
:101730000269D20703D0026922F00102026100208F
:1017400084F8461084F83E1084F83F1084F8401066
:1017500084F8411084F8421084F8431084F844104F
:1017600084F8451084F83D1010BD000080B582B0AB
:101770000068B0F1804F1CBF02B080BD41F21C0078
:10178000C4F202000168002241F00101016000681A
:10179000012100F00100019001981C20FFF706FCD8
:1017A0001C2002B0BDE88040FFF7ECBB90F83D1074
:1017B00001291CBF01207047022180F83D100068FC
:1017C00040F2FF72C168C4F20002904241F0010190
:1017D000C16009DCB0F1804F12D040F20041C4F288
:1017E000000188420CD012E042F60041C4F201012F
:1017F000884205D040F60001C4F20001884206D1BB
:10180000816801F00701062904BF002070470168C4
:1018100041F00101016000207047000080B590F8A0
:101820003C20012A4FF0020200F0C28080F83D20E7
:10183000D0F800C04FF67772DCF8083023EA0202D5
:10184000CCF808200B684F2B28DC1F2B44DD202B05
:1018500045D0302B43D0402B40F0AC80D1F804E091
:10186000C968DCF82030DCF8202022F00102CCF836
:101870002020DCF8182022F0F00242EA011123F0C7
:101880000A0242EA0E02CCF81810CCF82020DCF84C
:10189000081041F0470121F0300180E06F2B27DD77
:1018A000B3F5005F48D0B3F5805F7AD0702B40F07D
:1018B0008180D1E901E3C968DCF8082043EA0E031E
:1018C00022F47F4243EA01211143CCF80810DCF8EE
:1018D000081041F0770162E00BB1102B6AD1DCF8FF
:1018E000081021F07001194341F0070157E000BFD3
:1018F000502B35D0602B5DD1D1F804E0C968DCF8FD
:101900002030DCF8202022F01002CCF82020DCF877
:10191000182022F4704242EA013123F0A00242EA88
:101920000E12CCF81810CCF82020DCF8081041F08A
:10193000670121F0100132E0D1E901E3C968DCF868
:10194000082043EA0E0322F47F4243EA01211143B7
:10195000CCF80810DCF8081041F480411FE000BF0B
:10196000D1F804E0C968DCF82030DCF8202022F04F
:101970000102CCF82020DCF8182022F0F00242EA24
:10198000011123F00A0242EA0E02CCF81810CCF83A
:101990002020DCF8081041F0570121F02001CCF89C
:1019A00008100022012180F83D10002180F83C1031
:1019B000104680BD0122F5E77047000070B504466F
:1019C0000068C5680669B10716D515F0020113D085
:1019D0006FF002010161012121778069800703D046
:1019E0002046FFF7E9FF05E0204600F08FF820468B
:1019F00000F02CFA00202077700719D515F00400AC
:101A000016D020686FF004010161022121778069FE
:101A100010F4407F04D02046FFF7CEFF06E000BF61
:101A2000204600F073F8204600F010FA00202077DE
:101A3000300717D515F0080014D020686FF00801A2
:101A4000016104212177C069800703D02046FFF798
:101A5000B3FF05E0204600F059F8204600F0F6F903
:101A600000202077F00619D515F0100016D0206858
:101A70006FF01001016108212177C06910F4407FE7
:101A800004D02046FFF798FF06E000BF204600F094
:101A90003DF8204600F0DAF900202077F00718BF63
:101AA00015F0010002D1300609D412E020686FF071
:101AB00001010161204600F03BFA300609D515F01E
:101AC000800006D020686FF0800101612046FFF79A
:101AD0008DFD700609D515F0400006D020686FF026
:101AE00040010161204600F095FAB00658BF70BD74
:101AF00015F0200008D021686FF0200220460A610E
:101B0000BDE87040FFF774BD70BD00007047000075
:101B10002DE9F04390F83C30012B04BF0220BDE8D2
:101B2000F0834FEAB202032A3CD8DFE802F0034315
:101B300081BD00BF036842F600461D6A1A6AC4F2FE
:101B4000010622F001021A621A465C6852F818CFA8
:101B5000B3428E68D1F800E025F0020545EA06059B
:101B60000CD1CE68D1E9057824F4407425F00C0539
:101B700026F004063C43354344EA08042CF073077E
:101B800047EA0E075C609F614F6809695F631D62E9
:101B90009F6947F008079F619F6927F004079F61CD
:101BA000B2E000BF0121002280F83C200846BDE8D9
:101BB000F08300BF036842F600461D6A1A6AC4F249
:101BC000010622F010021A621A46D3F804C052F835
:101BD000184FB3428E68D1F800E025F0200545EAA1
:101BE000061510D1CE68D1E9058725F0C0096FF040
:101BF000400505EA06152CF4406647EA080745EA61
:101C0000090546EA870C24F4E64444EA0E27C3F8A3
:101C100004C09F614F6809699F631D629F6947F413
:101C200000679F619F6927F480679F616BE000BF39
:101C3000036842F600461D6A1A6AC4F2010622F4DD
:101C400080721A621A46D3F804C052F81CEFB342ED
:101C50008E680C6825F4007545EA062511D1CE681A
:101C6000D1E9058725F44069360240F2FF4526EAAE
:101C700005052CF4405647EA080745EA090546EAF7
:101C8000071C2EF073072743C3F804C0DF614F68B9
:101C90000969DF631D62DF6947F00807DF61DF69FB
:101CA00027F00407DF612FE0036842F60047D3F80E
:101CB00020C01A6AC4F2010722F480521A621A463E
:101CC0005C6852F81C5FD1F800E08E68BB4204D11A
:101CD0004F6924F4804444EA87142CF4005747EAFF
:101CE000063725F4E64646EA0E265C60DE614E685D
:101CF00009691E641F62DF6947F40067DF61DF69FD
:101D000027F48067DF61090213681943116000211D
:101D1000002280F83C200846BDE8F083002804BF7C
:101D20000120704710B5044690F83D0028B9002006
:101D300084F83C00204600F06FF8022084F83D0053
:101D4000206840F2FF730268C4F2000342F6004CC0
:101D50009842C4F2010C15DCB0F1804F1AD040F269
:101D60000041C4F20001884214D0984218DCB0F15E
:101D7000804F1DD040F20041C4F20001884217D0CC
:101D80001AE000BF604505D040F60001C4F2000132
:101D90008842EAD1A16822F070020A439842E6DD47
:101DA000604505D040F60001C4F20001884203D12D
:101DB000216922F440720A43A36922F08001D4F819
:101DC00004E0E268194360450160C262C0F828E09F
:101DD00002D16169CCF83010012141610269D2075A
:101DE00003D0026922F001020261002084F846104B
:101DF00084F83E1084F83F1084F8401084F84110B5
:101E000084F8421084F8431084F8441084F8451094
:101E100084F83D1010BD000081B0006840F2004120
:101E2000C4F20001884201D001B0704741F21C00A9
:101E3000C4F20200016841F002010160006800F094
:101E400002000090009801B0704700007047000049
:101E500041B1082910D0042914BF00F1410200F15A
:101E60003F020BE090F83E20012A1CBF0120704782
:101E7000022280F83E2013E000F140021278012A8D
:101E80001CBF012070470222082907D0042914BF73
:101E900080F8412080F83F2002E000BF80F8402019
:101EA000006801F01F010122036A8A4023EA02014F
:101EB0000162036A42F64441C4F201011A43A1F1EE
:101EC0004403984202620FD040F2FF71C4F2000155
:101ED000884213DCB0F1804F1CD040F20041C4F2C4
:101EE0000001884216D01CE00A6842F400420A60F1
:101EF00040F2FF71C4F200018842EBDD42F600417E
:101F0000C4F20101884205D040F60001C4F200018C
:101F1000884206D1816801F00701062904BF00202C
:101F20007047016841F00101016000207047000026
:101F30002DE9F04140F2FC31C2F20001006809686D
:101F4000884218BFBDE8F08140F2E82640F25430E4
:101F5000C2F20006C2F20000314600F0FDFB40F282
:101F6000B808C2F20008D8F80000D6E90C54776D22
:101F7000366D04F0A1F802460B463046394603F0B0
:101F8000ADFF03F095FA4CF6CD41C3F64C61064621
:101F900004F046FB474647F80C0F2846214647F811
:101FA000046C03F085FA4DF20A71C3F6234147F839
:101FB000080C04F035FB786007F108013846FEF79D
:101FC00093FA57F8044C0021C4F23421204604F05F
:101FD00039F998B90021CCF23421204604F047F9B0
:101FE00060B9D8F8140048F20001C4F23B5104F083
:101FF00017FB04F045FA044603E000BF0024C8F8CC
:102000001440204600F0C0FF2046BDE8F04100F03B
:10201000DBBF000070470000FEE700002DE9F0473D
:1020200082B0044600680E460168DDF828A041F43D
:10203000806101600168DDF82C9041F480711D46DB
:102040001746016020464FF0011100225346CDF89B
:10205000009000F033F958B120680068C00544BF13
:102060004FF400702064032002B0BDE8F08700BF89
:1020700040F202082068C0F2010806F0FE06066180
:102080002046414652464B4600F002FA20B101205C
:1020900002B0BDE8F08700BF0020019020684A46EA
:1020A000416901918069514601900198204600F0F4
:1020B000A7FA98B92068012D08D0390A0161204695
:1020C00051464A4600F09CFA40B92068F9B20161D5
:1020D000204651464A4600F093FA58B1206C042835
:1020E000D5D12068016841F400710160012002B07F
:1020F000BDE8F087206800220168534641F48071F2
:10210000016020464FF00111CDF8009000F0D6F8A4
:102110000028A1D1206846F0010101612046414616
:1021200052464B4600F0B4F9002818BF012002B017
:10213000BDE8F0872DE9F04383B0044600680D4602
:1021400001680A9F0B9E41F4807199469046016098
:1021500020464FF0011100223B46009600F0AEF8F9
:1021600050B120680068C00544BF4FF4007020647F
:10217000032003B0BDE8F083206805F0FE01016193
:102180000221C0F2010120463A46334600F080F9B0
:1021900020B1012003B0BDE8F08300BF0020029011
:1021A000206832464169029180693946029002985E
:1021B000204600F025FA58B1206C0428E9D12068A7
:1021C000016841F400710160012003B0BDE8F083B3
:1021D0002068B9F1010F0AD04FEA182101612046A9
:1021E0003946324600F00CFA0028E5D120685FFA43
:1021F00088F10161002003B0BDE8F08370B5036889
:10220000044653F8140F400711D40E46481C29D039
:1022100086BB00BF1868400527D4FEF7C3FA2368C1
:1022200053F8140F400739D518684007F2D500203D
:1022300070BD00BF18684007F9D41868400514D471
:1022400018684007F3D4186840050ED41868400792
:10225000EDD41868400508D4186840074FF0000016
:1022600048BF70BD18684005E4D56FF48060186001
:10227000042014E0154603E053F8140F4007D6D4A9
:1022800018684005F1D4FEF78DFA401B2368B04270
:10229000F2D958694007EFD4202000E02020002127
:1022A0002022216384F83D2084F83E10226C1043E4
:1022B0002064012084F83C1070BD00002DE9F0413D
:1022C000054600681E46144601F47F0201338FB2B2
:1022D00042D0DDF81880B2F5803F40F08780406939
:1022E0003840C01BB0FA80F04009A04240F0C880DE
:1022F0004EB924E040693840C01BB0FA80F0400974
:10230000A04240F0BD80FEF74DFAA0EB080128681E
:10231000B142EFD941693940C91BB1FA81F149098C
:10232000A142E7D19BE000BF40693840C01BB0FA32
:1023300080F04009A0424FF0000040F0A680FEF778
:1023400031FA286841693940C91BB1FA81F149095C
:10235000A142E9D183E000BFB2F5803F24D100BFA4
:1023600041693940C91BB1FA81F14909A14240F0E4
:10237000878041693940C91BB1FA81F14909A142FD
:1023800040F07E8041693940C91BB1FA81F14909A9
:10239000A14275D141693940C91BB1FA81F149099E
:1023A000A142DDD06CE000BF81693940C91BB1FAA0
:1023B00081F14909A14263D181693940C91BB1FA50
:1023C00081F14909A1425BD181693940C91BB1FA48
:1023D00081F14909A14253D181693940C91BB1FA40
:1023E00081F14909A142DFD04AE000BF806938404D
:1023F000C01BB0FA80F04009A04241D146B923E0A9
:1024000080693840C01BB0FA80F04009A0423BD13F
:10241000FEF7C8F9A0EB08012868B142F0D981693C
:102420003940C91BB1FA81F14909A142E8D116E04E
:1024300080693840C01BB0FA80F04009A0424FF0DC
:10244000000018BFBDE8F081FEF7ACF9286881698B
:102450003940C91BB1FA81F14909A142E8D10020F4
:102460002021286385F83D1085F83E00296C41F055
:102470002001296485F83C000120BDE8F08100BFFF
:102480000020BDE8F08100BF0020BDE8F081000021
:10249000F0B581B0044600681D4643698FB203EA77
:1024A0000701B94202D1002001B0F0BD41691646D2
:1024B000013201F4806125D0002940D1CEB100BFA6
:1024C000FEF770F9411B2068B14203D941693940D8
:1024D000B9424BD141693940B942E4D0416949051B
:1024E000EED52CE041693940B942DCD0416949055B
:1024F00025D4FEF757F9206841693940B942F1D037
:10250000202024E0D9B941693940B942CBD0416992
:10251000490514D441693940B942C4D041694905DB
:102520000DD441693940B942BDD04169490506D44D
:1025300041693940B942B6D041694905E3D50168DE
:1025400041F4007101606FF4806141610420002159
:102550002022216384F83D2084F83E10226C104331
:10256000206484F83C10012001B0F0BD2020EEE78B
:1025700070B504460068154650F8143F5A063DD41D
:102580000E4629B926E000BF50F8141F490635D47D
:102590000168C90621D4FEF705F9411B2068B14244
:1025A000F2D941694906EFD400202021206384F844
:1025B0003D1084F83E00206C40F0200018E000BF81
:1025C000FEF7F0F8206850F8141F4906ECD50168B2
:1025D000490613D40168C906F2D56FF010010160F5
:1025E00000202021206384F83D1084F83E00206CF8
:1025F0002064002084F83C00012070BD002070BDE4
:1026000070B50368044653F8140F000611D40E4643
:10261000481C29D086BB00BF1868400527D4FEF7A8
:10262000C1F8236853F8140F000639D5186800065E
:10263000F2D5002070BD00BF18680006F9D41868F4
:10264000400514D418680006F3D4186840050ED469
:1026500018680006EDD41868400508D4186800060C
:102660004FF0000048BF70BD18684005E4D56FF416
:1026700080601860042014E0154603E053F8140F3E
:102680000006D6D418684005F1D4FEF78BF8401B3D
:102690002368B042F2D958690006EFD4202000E048
:1026A000202000212022216384F83D2084F83E1060
:1026B000226C10432064012084F83C1070BD00009F
:1026C0002DE9F04184B0044601250DF10F00642688
:1026D000CDE900052046D021752201230296FEF7A0
:1026E00023F99DF80F00682831D14FF000080DF153
:1026F0000E072046D0216B2201238DF80E80CDE9F4
:1027000000750296FEF7C0FA07208DF80E002046ED
:10271000D02119220123CDE900750296FEF7B4FA03
:102720002046D0211C2201238DF80E80CDE90075B2
:102730000296FEF7A9FA2046D0211B2201238DF82C
:102740000E80CDE900750296FEF79EFA0025284618
:1027500004B0BDE8F08100002DE9F04F9FB08A463B
:102760000E210DF16E026427CDE90021D0213B221C
:1027700001230297FEF7D8F8BDF86E00BDF870602F
:1027800001BA090CAAF8001031BABDF87270090C30
:10279000AAF8021039BABDF876B0090CAAF80410EC
:1027A0009BFA8BF1BDF87840090CAAF8201021BAE9
:1027B000BDF87A80090CAAF8221098FA88F1BDF8C1
:1027C0007490090CC0BAAAF8241003F0F5F800259B
:1027D000C3F6107500222B4603F090F9CAE90201F6
:1027E000F0BA03F0E9F800222B4603F087F9CAE9B2
:1027F0000401F8BA03F0E0F842F60013C4F2CC0387
:10280000002202F043FFCAE9060199FAB9F003F089
:1028100073FE0021C4F2AA3103F03CFD41F6B86119
:10282000C4F2122103F074FCCAF840009BFABBF01A
:1028300003F0C2F846F20005C4F2600500222B4600
:1028400002F024FFCAE90A01E0BA03F0B5F8002259
:102850002B4602F01BFFCAE90C0198FAB8F003F00E
:10286000ABF800222B4602F011FFCAE90E01FDF77A
:1028700099FF40F2F045C2F200052968401A03F0C2
:10288000B2F844F20003C4F28F03002202F0FEFE0D
:10289000CDE91910FDF786FFBAF90010BAF9042046
:1028A000494302FB02112860084603F085F802F054
:1028B000D9FD0022002305460E4603F08BFC08BB21
:1028C000BAF9020003F078F82A46334602F0DEFE39
:1028D00002F0EAFB4CF2F8124AF2DC53C1F6632232
:1028E000C4F24C0303F00AF941F27B4247F6E123BC
:1028F000C4F2AE72C3F6947303F000F9CDE9171079
:1029000004E000BF0020179000201890BAF90000E2
:10291000BAF90450404203F04FF8064628460F46E5
:1029200003F04AF802460B463046394602F0CCFC2A
:102930004CF2F8124AF2DC53C1F66322C4F24C03A3
:1029400003F0DCF848F20003CCF256030022804684
:102950000E4603F054FC58B9DAE9184948F200036E
:10296000C4F2560320464946002203F041FCA8B9B0
:1029700048F20003C4F2560340463146002203F0F9
:1029800045FCA8B9DAE9184948F20003CCF256032D
:1029900020464946002203F032FC48B940F20800C4
:1029A000C2F20000C0E90686CAE9148639E100BF18
:1029B00040F20807C2F20007D7E90854DAE91432F6
:1029C000DAE90C01CDE910322A462346CDE90E544E
:1029D00003F084FACDE91586DDF86890199E024669
:1029E000D7E906580B464846314603F087F82A4691
:1029F000434602F08FFDD7E9102BD7E90C450B9029
:102A00000A91484631465B460D9414959146CDF89F
:102A100014B003F073F822462B4603F05FFAD7E9AF
:102A20000E844246234603F059FA97E82C000C9591
:102A3000FD68069502F06EFD02461A98FD6ABF6AAF
:102A40000B46314603F05AF83A462B4602F062FD37
:102A5000CDE912101A9886F000414A465B464F466F
:102A600003F04CF80D9A149B0546894602F052FD7E
:102A700009901491284649464246234602F04AFDF1
:102A800083460890884607910C9806991A9A33460F
:102A900003F034F8059B3A4602F03CFD0D9040F2FD
:102AA0000800C2F20000139C129DD0E904230C918F
:102AB0002046294602F02EFD06460F4620462946AE
:102AC00032463B4602F0E2FD8146CDE9031058460E
:102AD000414632463B4602F0D9FD0B9C0A9D834697
:102AE000069088460591DDE9150122462B4603F044
:102AF000F5F907464846DDF80C900E4649463A4639
:102B0000334602F0FBFF22462B4602F003FD40F263
:102B100008040D46C2F200040B90C4E906055846AD
:102B200041463A46334602F0E9FFDDE90E2302F062
:102B3000F1FCC4E90801A046049C139FDDF848B0ED
:102B4000204649463A465B4602F0D8FF02460B460D
:102B50003846594603F0C2F9C8E90A014946A94670
:102B6000DDF82480149D204642462B4602F0C6FF25
:102B700002460B464046294603F0B0F940F20805EC
:102B8000069E059CC2F20005C5E90C0130462146AF
:102B90003A465B4602F0B2FF02460B46DDE90710FB
:102BA00003F09CF9149BC5E90E01304621464246CC
:102BB0000B9C02F0A3FF02460B46DDE90C1003F06C
:102BC0008DF9C5E91001DAE90C01DDE91932CAE92C
:102BD000184902F093FFDDE9102302F09BFC054643
:102BE0000E4641F27B4247F6E123DDE91501C4F2CE
:102BF000AE72C3F6947302F081FF48F65C7245F63C
:102C0000284307468846CFF2C252C3F6EF732846E0
:102C1000314602F073FF3A46434602F07BFCCAE9B4
:102C2000140148F2000329F00041C4F25603204683
:102C3000002203F0EBFA0246DAE90A01002A04BF97
:102C400081F00041CAE90A01DDE91932179FDAE98A
:102C5000125602F053FF2A46334602F05BFC48F658
:102C60005C7245F62843CFF2C252C3F6EF7302F00E
:102C700045FF189A3B4602F04DFCCAE912011FB00D
:102C8000BDE8F08F2DE9F04381B040F2543540F2B9
:102C9000E824FA26C2F20005C2F2000428462146C2
:102CA000FFF75AFD0220FDF753FC013EF6D140F23A
:102CB000543841F20009002540F6C417C2F200085A
:102CC000C4F20109002600BF40462146FFF744FD3B
:102CD000D4E914232846314602F01CFC05460E4672
:102CE00048464FF40051FDF755FD0220FDF730FC3A
:102CF000013FE9D148F60003C4F2A3032846314658
:102D0000002202F0C3FC02F0D3FB40F2B801C2F291
:102D10000001086001B0BDE8F083000083B041F21B
:102D20001800C4F20200016841F02001016001684E
:102D300001F0200102910299016841F00401016053
:102D4000016801F0040101910199016841F0080155
:102D50000160006800F008000090009803B0704720
:102D600080B540F2543045F20041C2F20000C4F296
:102D7000000141F6802200234FF4804CC0F206028D
:102D800080E80E00C0E9033CC0E90533C0E9073321
:102D9000FDF70EFD002808BF80BDBDE88040FDF7AF
:102DA000D1BB000080B540F2A83045F60001C2F268
:102DB0000000C4F2000141F6802200234FF4804C51
:102DC000C0F2060280E80E00C0E9033CC0E905330A
:102DD000C0E90733FDF7ECFC002808BF80BDBDE863
:102DE0008040FDF7AFBB000080B586B040F2FC30FC
:102DF0000021C2F200004FF08042632341F61F4CD5
:102E00000591CDE90311CDE90011C0E90023C0E926
:102E1000021C01618161FEF72BFC002818BFFDF741
:102E200091FB4FF48050029040F2FC30C2F200005F
:102E300002A9FEF7F3FC002818BFFDF783FB40F260
:102E4000FC30C2F200006946FEF7D4FB002818BF30
:102E5000FDF778FB06B080BD70B590B040F200453C
:102E600040F24440C4F200050021C2F200000922F1
:102E700040F6AB53CDE90811CDE90611CDE90411B7
:102E8000C0E90052C0E9021301618161FEF746FF0B
:102E9000002818BFFDF756FB40F24440C2F2000084
:102EA00008A9FEF7A7FB002818BFFDF74BFB602021
:102EB00001900020CDE90200059040F24440C2F2AA
:102EC000000001A90022FEF723FE002818BFFDF72D
:102ED00039FB40F24440C2F2000001A90422FEF78F
:102EE00017FE002818BFFDF72DFB40F24440C2F248
:102EF000000001A90822FEF70BFE002818BFFDF70D
:102F000021FB40F24444C2F2000401A920460C22F5
:102F1000FEF7FEFD002818BFFDF714FB2068002116
:102F2000A8420E9102D010B070BD00BF41F218004F
:102F3000C4F2020001680CAC41F0040101600168B8
:102F4000022601F004010B910B99016841F0080180
:102F500001600068214600F008000B900B98C0202B
:102F60000C9005F582300D960F96FDF705FB0320BA
:102F7000CDE90C0605F5843021460F96FDF7FCFAE5
:102F800010B070BDFEE7000060B140F24441C2F2F3
:102F90000001012810DB096800F5FA708863002041
:102FA0004863704740F24440C2F2000000680021CC
:102FB00041638163704700BF09680022C0F5FA7061
:102FC0008A6348637047000070B140F24441C2F226
:102FD000000109680128A7BF0864002000220A64D4
:102FE000B8BF4042C863704740F24440C2F200009C
:102FF00000680021C163016470470000FEE7000023
:103000007047000070470000FDF754BF7047000094
:1030100040F2FC30C2F20000FEF7D0BCFEE7000038
:1030200090B0FDF755FF00240120CDE90B44CDE918
:10303000094406900A904FF4E0104FF480310225C5
:103040000F9006A8CDE90714CDE90D51FEF7DEF883
:1030500020B1EFF3108072B6FEE700BF0F20CDE97C
:1030600001054FF48060CDE9040401A80221039416
:10307000FDF7D8FF20B1EFF3108072B6FEE700BF76
:10308000FFF74CFEFFF7E8FEFFF7AEFEFFF768FE26
:10309000FFF788FE40F24444C2F2000420460021BB
:1030A000FEF7D6FE20460421FEF7D2FE2046082178
:1030B000FEF7CEFE20460C21FEF7CAFEFDF7D0F843
:1030C00040F25434C2F200042046FFF7F9FA012816
:1030D000FAD06420FDF73CFAFFF7D4FD40F2FC3053
:1030E000C2F20000FEF762FB40F25030C2F2000074
:1030F00001210170FEE7000020F000407047000051
:10310000B0B540F6DB71C3F6C97103F001F84FF6B4
:103110008311CBF6A26103F083FA00250446CCF6B6
:10312000C0352846214603F047FB294603F044FBFF
:103130000146204602F0ECFF0021044620F000404A
:10314000CBF6807102F0E4FF0146204603F068FAF6
:1031500046F26521044620F00040C4F2650103F008
:103160005FFA4AF26771C4F2460102F0D1FF0146EC
:10317000204603F055FAB0BD70B54AF63B21C3F6C0
:10318000B87103F04DFA0021CCF2FC21044603F0A3
:1031900067F800281CBF002070BD20464FF0864114
:1031A00003F05EF840B940F22011C2F20001087845
:1031B00001282FD1886870BD0025C4F2FE25204665
:1031C000294602F0A5FF03F077F9064603F0ACF9B3
:1031D0000146284603F0F0FA0146204602F098FF27
:1031E0004FF2D051C3F6AD610546F40503F018FA6D
:1031F00040F21851C3F6297102F08AFF01462846B1
:1032000003F00EFA4FF07E5102F082FF214603F0E8
:1032100007FA70BD4FF6FF72C7F6BF724FF0FF405E
:10322000C1E9020201220A7070BD000020F00041D5
:103230000020B1F1FF4F88BF01207047B0B50021D9
:10324000044603F006F878B940F22011C2F20001FA
:103250000878012834D1C86847F21821C3F63171C3
:1032600003F0DEF9B0BD00BF60003BD0E00D03F01D
:103270005BF905467F2060F3DF544AF6AB21CBF6BD
:10328000AA61204603F0CCF94FF0804102F040FFE4
:103290000146204603F0C4F94FF0434102F038FFE5
:1032A0004AF6AB21CBF62A7102F032FF294602F032
:1032B0002FFF47F21821C3F6317103F0B1F9B0BD09
:1032C0004FF6FF70C7F6BF704FF0FF42C1E9022012
:1032D00001220A7047F21821C3F6317103F0A0F9F8
:1032E000B0BD00BF40F22010C2F2000001780129F9
:1032F00002D181680AE000BF4FF6FF72C7F6BF72C5
:103300004FF0FF41C0E902120122027081F000403B
:1033100047F21821C3F6317103F082F9B0BD000005
:1033200070B50C460021054602F093FF40B940F20B
:103330002011C2F200010878012827D1C86847E0AF
:1033400068002FD0E80D03F0EFF806467F2060F309
:10335000DF554AF6AB21CBF6AA61284603F060F9A7
:103360004FF0804102F0D4FE0146284603F058F9A0
:103370004FF0434102F0CCFE4AF6AB21CBF62A7166
:1033800002F0C6FE314602F0C3FE21E04FF6FF70A8
:10339000C7F6BF704FF0FF42C1E9022001220A7058
:1033A00016E000BF40F22010C2F2000001780129AF
:1033B00002D181680AE000BF4FF6FF72C7F6BF7204
:1033C0004FF0FF41C0E902120122027081F000407B
:1033D000214603F025F90021CCF2FC21044602F03D
:1033E0003FFF00281CBF002070BD20464FF08641E3
:1033F00002F036FF40B940F22011C2F20001087815
:1034000001282FD1886870BD0025C4F2FE25204612
:10341000294602F07DFE03F04FF8064603F084F8DB
:103420000146284603F0C8F90146204602F070FE26
:103430004FF2D051C3F6AD610546F40503F0F0F844
:1034400040F21851C3F6297102F062FE0146284687
:1034500003F0E6F84FF07E5102F05AFE214603F0E9
:10346000DFF870BD4FF6FF72C7F6BF724FF0FF4036
:10347000C1E9020201220A7070BD0000B0B500214E
:10348000044602F0E6FE48B940F22011C2F2000103
:103490000878012816D1C868B0BD00BF60001DD0F3
:1034A000A4F500004FF0005101EB500520462946DD
:1034B00002F0F0FE294602F02BFE4FF07C5103F0A3
:1034C000AFF8B0BD4FF6FF70C7F6BF704FF0FF42C8
:1034D000C1E9022001220A70B0BD00BF0020B0BDCA
:1034E00010B5D0F834E084460EEB410048F20403F6
:1034F000821D00BF32F8060C984212D00EEB41003C
:1035000044889C420AD08088984209D032F8080B3F
:1035100004319842EED1013903E000BF013100E0EF
:10352000023144F2ED02C0F600020846CCF8242035
:1035300010BD0000F0B581B0D1E90056846828467E
:10354000314602F07FFED8B92046314602F081FEB6
:10355000B0B93046294603F02FF9074630463146C8
:1035600002F0D6FD294603F027F9214603F024F99D
:103570000146384602F08EFE0746384601B0F0BDDF
:103580002846314602F06CFE00284FF07E57F4D1F9
:103590002046314602F064FE0028EED1284631462E
:1035A00003F00AF907463046314602F0B1FD014604
:1035B000284603F001F90146204602F0A9FD014624
:1035C000384602F067FE0746384601B0F0BD0000FD
:1035D000086870472DE9F04F81B0D0F80880D1E934
:1035E0000096404602F068FD834648460D4602F0CC
:1035F00063FD074630460C4602F05EFD0023CBF625
:10360000E07300224FF0000A02F078FA3A462346AF
:1036100001F080FF5A462B4602F0EAFD0446304690
:103620004FF07C5102F0FCFF494602F071FD14BBE3
:103630000146404602F006FEE8B94FF080403146B0
:1036400002F028FE40F6DB71C4F2490102F0E8FF07
:1036500004464046494603F0AFF8214602F0E0FF39
:10366000FFF74EFD4FF07E5102F052FD4FF07C51BE
:1036700002F0D6FF8246504601B0BDE8F08F000050
:1036800070B50C4605468168D4E9006003F094F8F3
:10369000314602F0C5FFFFF76FFD4FF07E5102F09B
:1036A00037FD01464FF07E5002F0F4FDA968D4E9E1
:1036B00002520446104603F07FF8294602F0B0FF9C
:1036C000FFF75AFD4FF07E5102F022FD01464FF008
:1036D0007E5002F0DFFD0146204603F06DF8BDE8A4
:1036E0007040FFF709BD00002DE9F04F81B0814621
:1036F0004FF0000071B1022912D0012940F0C180C1
:10370000D9E9080102F004FDC9F82400002001B045
:10371000BDE8F08FC9F8240001B0BDE8F08F00BF0C
:10372000D9F80C500020D5F84CB0C9F82800BBF1EE
:10373000000F00F0A480686B0088B0F5004F59D1ED
:103740004FF0000A48F2010B00270026D9F800804C
:10375000D9F818403046C9F820A002F0E5FE4FF035
:103760007C5102F0D5FC214602F05AFF414602F09E
:10377000CFFC696BC9F81C000A88C9F80800B2F5CB
:10378000004F1FD143F2E1404988C0F60000686253
:1037900000205945686516D0012100BFD5E9140203
:1037A000824209D26A6A2846904728B16A6B411C56
:1037B00032F811005845F1D1D9F82000D9F8287015
:1037C00001E000BF0020394602F0A2FC0746D9F80C
:1037D00024004FF07C51C9F8287002F021FF014607
:1037E000384602F044FD002849D0E86C0136864294
:1037F000ACD344E0D9F82400D9F80080D9F818A057
:103800004FF07C5102F00CFF0546002728460021AE
:1038100002F026FD08BB7C1C5C451ED22846002118
:1038200002F01EFDB0B9BE1C5E4513D22846002131
:1038300002F016FD80B9F81C58450DD2284600212B
:1038400002F00EFD07F1040708B95F45DED3013F22
:1038500003E000BF274600E03746384602F064FE2A
:103860004FF07C5102F054FC514602F0D9FE414623
:1038700002F04EFC0021C9E90701C9F80800D9F897
:103880001C0001B0BDE8F08FF0B581B004464FF0E8
:103890000000A9B1022917D0012919D104F11C0790
:1038A000E1CF294602F0BCFE314602F031FC6062F5
:1038B0002846394602F02CFCA062002001B0F0BD81
:1038C000C4E9090001B0F0BDD4E9090102F0E2FC4D
:1038D00001B0F0BDB0B5044661B1022912D0012992
:1038E00005D1D4E90851284602F0C1FC60B100209E
:1038F000B0BD00BF00206168CBF68070C4E909014B
:103900000020B0BDA06AB0BDE069C4E90950002044
:10391000B0BD000070B50446B1B1022920D0012924
:103920001CBF002070BDD4E908562846314602F07D
:1039300097FCF8B9E0694FF07E51C4E90950C4E939
:103940000B01002070BD00BF0020CBF6807004F199
:103950002403D4E9001207C32063002070BD00BF18
:10396000D4E90A0102F0D4FB4FF07C5102F058FE7A
:1039700070BD00BF2846314601F0F0FA40B1206B1F
:10398000002102F06DFC18B9E069E062002070BD12
:10399000D4E9080102F05DFC0028F7D10020CBF645
:1039A00080702063002070BDB0B5044671B102295B
:1039B00014D0012908D1D4E90851284602F050FC5E
:1039C00010B9E069C4E909500020B0BD00202168A9
:1039D000CBF68070C4E909010020B0BDA06AB0BD7B
:1039E00002291CBF0020704780B5D0E9092110468C
:1039F00002F050FC80BD000002290CBF406A00208C
:103A0000704700002DE9F04F87B0002800F0C88112
:103A10008046006C00284DD000240025D8F8040012
:103A2000D8F82820204400219047D8F840B001352C
:103A30005D4504F13404F1D398F85E00002840D0CD
:103A4000BBF1000F00F04881D8F80400ABF101028F
:103A50000BF003010023032A4FF0000211D32BF0D7
:103A6000030700F1C4050022043245E9283345E983
:103A70001B3345E90E3345F8043C45F8D03B9742EB
:103A8000F2D1002900F02A81342302FB030300272E
:103A900001295F629F6200F0218102299F65DF6535
:103AA00000F01C81342102FB01000021C0E9231138
:103AB00014E100BF98F85E004FF0000B002840F0C2
:103AC0000D81D8F84C00002800F044814FF0000927
:103AD0005F460026CDF8048007E000BF0027D8F835
:103AE0004C000136864280F03581002F049600F0AC
:103AF000A5800498D8F8044002F016FD4FF07C51E0
:103B000002F006FB791E0329064605D2002017F0B5
:103B1000030A62D192E000BF27F0030004F1BC0861
:103B200040424FF00009B24603940297059000BF4F
:103B300058F8A41C002658F8BC7C58F8885C58F843
:103B4000704C504648F89C6C02F06AFD394602F011
:103B5000DFFA48F8A00C48F8B40C5046214648F863
:103B6000686C02F05DFD294602F0D2FA58F83C1C60
:103B700048F86C0C48F8800C58F8544C504648F8FB
:103B8000346C02F04DFD214602F0C2FA58F8081CD0
:103B900048F8380C48F84C0C58F8204C5046C8F8F7
:103BA000006002F03DFD214602F0B2FA48F8040C34
:103BB00048F8180C0598A9F10409484508F1D008FF
:103BC000B6D1DDF80480DDE902745646C9F1000083
:103BD0004FF0000917F0030A30D0342100FB0145F3
:103BE0004843A96924583046C5F8209002F018FDD2
:103BF000214602F08DFABAF1010FE861A8601DD0EC
:103C0000E96C6C6B3046C5F8549002F009FD214612
:103C100002F07EFABAF1020F2865E8630ED0D5F8FB
:103C20008010AC6E3046C5F8889002F0F9FC214651
:103C300002F06EFAC5F88400286700BFD8F8340097
:103C40000188B1F5004F22D143F2E1414088C0F62E
:103C50000001C8F8241048F201018842C8F85490C5
:103C600015D0012148F20104D8E9140282420BD296
:103C7000D8F824204046904730B1D8F83420411C71
:103C800032F81100A042EFD1D8F840B05F46049E50
:103C9000002F3FF423AFD8F804000024002507E0EC
:103CA000D8F840B0013534345D455F46BFF417AFF6
:103CB000D8F82820204401219047D8F804000119A1
:103CC0000A69002AECD0CB694F6942F82630096AAC
:103CD00047F82610E4E700BF4FF0000BD8F8340097
:103CE0000188B1F5004F21D143F2E141408848F20B
:103CF0000104C0F60001C8F824100021A042C8F851
:103D0000541013D0012100BFD8E9140282420BD213
:103D1000D8F824204046904730B1D8F83420411CD0
:103D200032F81100A042EFD1D8F840B0BBF1000F3B
:103D300036D00024002500BFD8F80400D8F8282089
:103D4000204401219047D8F840B001355D4504F189
:103D50003404F1D3BBF1000F22D0D8F804000024C2
:103D60006FF0330606AD00BFD8F8282006F13407FF
:103D7000384402219047D8F804108A19D063D2E958
:103D80000D120690284601F0FBF8D8F80400D8F888
:103D9000402006990134831994423E46D963E3D307
:103DA000002007B0BDE8F08F2DE9F04381B0002876
:103DB00044D08046C06BC8B1D8F8000000246FF032
:103DC0000B066D46304400F10C030ECB28460093E1
:103DD00001F0D6F8D8F80000D8F83C20009901345A
:103DE0008319944206F10C065961EBD3D8F84400CC
:103DF00050B300276FF013044FF00109D8F8080002
:103E0000D8F800200519D5E90860D5E9053100EB9F
:103E1000400002EB8000012298470146304602F044
:103E2000FFFBE861D8F844000137874204F114042D
:103E3000E4D3484601B0BDE8F08300BF4FF000096D
:103E4000484601B0BDE8F0834FF00109484601B093
:103E5000BDE8F083B0B58068D1E90045896802F01B
:103E6000ABFC214602F016FAFFF746F90446284655
:103E7000294602F04DF901462046FFF751FA4FF06E
:103E80007E5102F045F901464FF07E5002F002FAF1
:103E9000B0BD00002DE9F04787684E680C468246A9
:103EA000D1F80C903846314602F0CCF910B14FF001
:103EB0007E5813E025683846314602F07DFC2946DD
:103EC00002F0E8F94FF03F41054602F0A9FB014638
:103ED000284602F0A5FBFFF74FF9804638464946D1
:103EE00002F0B0F930B14FF07E51404602F098FB3D
:103EF000BDE8F087DAF80800D4E9025102F05CFC72
:103F0000294602F0C7F94FF03F41044602F088FB12
:103F10000146204602F084FBFFF72EF90146404699
:103F200002F07EFBBDE8F08710B58068D1E9004162
:103F300002F042FC214602F0ADF94FF03F41044649
:103F400002F06EFB0146204602F06AFBBDE810401D
:103F5000FFF712B9024600284FF0000006D00029F2
:103F600048BF7047342001FB002080687047000084
:103F7000B0B5D8B3426B0446108848F20105B0F5DD
:103F8000004F29D14FF6FF71A4F85C1043F6F17091
:103F90005188C0F6000020620020A9426065A0653B
:103FA0001CD0D4E91401814210D20121226A20469A
:103FB000904768B1626B411C32F81100A84209D0E9
:103FC000D4E914038342F1D304E000BF012101E0EE
:103FD000626B002132F81100A84207D1D4E9140124
:103FE000081AB0FA80F04009B0BD00BF0020B0BD93
:103FF0002DE9F04F83B00546406B01F1020B00EB59
:10400000410230F8119030F81B0048F20301019092
:10401000B5F95C00B2F90240CFF6FF7188420FFAA1
:1040200089FA09D048F20201CFF6FF71884209D11E
:1040300005F1100002E000BF05F11400D0F8008087
:1040400004E000BF44F6E128C0F6000820B284EA8C
:10405000E031A1EBE03000B2A96800EB800001EB99
:10406000800050F80C0CAE6D029002A800214FF0B9
:104070007E5200F085FF029F4FF07E50394602F0DD
:104080009BFB002C48BF074630463946C047BAF173
:10409000000FA86524D4E86B484521D3019944F268
:1040A0000100B0EB510F0BD143F6F170A5F85C1095
:1040B000C0F600002862584603B0BDE8F08F00BF8C
:1040C00048F20200023080B2814209D144F2092054
:1040D000C0F600002862584603B0BDE8F08F00BF6C
:1040E0004FF0000B584603B0BDE8F08F2DE9F04FBC
:1040F00081B00E46016C0546406B022926BF00EBDD
:104100004601B1F904A04FF0FF3A296B6A6D06F140
:10411000010B30F91B4030F9167051F822000021D4
:1041200002F09EF850BB84EAE4306FEAE4310844C0
:1041300095F85E1000B20029E968D5F8048000EB1C
:10414000800001EB800025D0D0E900312868EA6BBF
:104150009847D5F830906C6D342259F8241007FB3D
:10416000028702F05DFAD7E9091801F0D1FF786201
:1041700059F82400414601F0CBFFB86248F2020032
:10418000CFF6FF70824532D106F1020B584601B0DE
:10419000BDE8F08F342107FB0189D0E90031D0F868
:1041A0000C804846012298470146404602F038FA02
:1041B00007464FF07E50394602F0FEFA296B6A6DD1
:1041C000002C51F82210D5E90624D9F8208048BFE8
:1041D000074608463946904701464046A047C9F879
:1041E000200048F20200CFF6FF708245CCD043F2A7
:1041F000E140696DC0F600006862481C6865584679
:1042000001B0BDE8F08F0000F0B581B00446006C4D
:104210000D46022807D3616BA81C31F8101048F234
:104220000202914226D043F6F170C0F600002062EF
:104230004FF6FF70A4F85C00D4E90B01D4E91562D5
:1042400041F8262088B150F82600002100906846E9
:104250004FF07E5200F094FE276B666D009857F881
:10426000261002F0DDF947F826000020711CC4E991
:104270001510681C01B0F0BD4FF0000C58B10029BA
:1042800009D401EB410100EB810CCCF804304FF074
:10429000010C40F8212060467047000070B5D1E95C
:1042A000004685682046314601F0D3FFF0B9284624
:1042B000214601F0DCFF00281CBF002070BD28460D
:1042C000314601F0BFFF00281CBF4FF07E5070BD8B
:1042D0002846214602F070FA05463046214602F093
:1042E0006BFA0146284601F0D5FF70BD20463146E5
:1042F00000F034FE002804BF002070BD284621468F
:1043000001F0B5FF01464FF07E50002918BF002094
:1043100070BD000070B5D1E9004685682046314681
:1043200001F097FFE0B92846214601F0A0FF0028E0
:104330001CBF4FF07E5070BD2846314601F082FF11
:10434000E0B92046294602F037FA054620463146B4
:1043500002F032FA0146284601F09CFF70BD00BF12
:104360002046314600F0FAFD40B12846214601F0D2
:104370007EFF002818BF4FF07E5070BD002070BD3A
:104380002DE9F04F85B0154689465AB10446681E9E
:10439000032805F0030607D24FF000080027002E7F
:1043A00048D176E0002774E025F0030004F12C08E2
:1043B000CDF80890A9F1100940424FF0000A0027FB
:1043C000CDE900640395049059F8101F58F8240CA7
:1043D00058F8186C58F80CBC02F022F9394601F074
:1043E00097FE09F1040532CD0746304602F018F970
:1043F000394601F08DFE06465846214602F010F976
:10440000314601F085FE58F8301B0446084629461F
:1044100002F006F9214601F07BFE07460498AAF156
:10442000040A5045D0D1DDE90295DDE90064CAF106
:10443000000876B308EB480004EB8000806859F868
:10444000281002F0EDF8394601F062FE012E074611
:104450001FD008F1010101EB410004EB80008068EE
:1044600059F8211002F0DCF8394601F051FE022E15
:1044700007460ED008F1020101EB410004EB800079
:10448000806859F8211002F0CBF8394601F040FE5F
:10449000074659F82510384601F03AFE05B0BDE848
:1044A000F08F0000B0B582B00C46054601F0CAFEA0
:1044B000002801A84FF000014FF07E5218BF2C4693
:1044C000019400F05DFD019802B0B0BDB0B582B0BE
:1044D0000C46054601F0CBFE002801A84FF0000174
:1044E0004FF07E5218BF2C46019400F049FD019810
:1044F00002B0B0BD4FF0000CC8B1002917D480B590
:104500004FF0340C01FB0C0E01FB0CFC002140F8B9
:104510000C204FF0010CCEE90711CEE90911CEE9CC
:104520000B11CEF80430CEE90411BDE8804060469E
:104530007047000070B50C4605468168D4E90060FC
:1045400002F03AF9314602F06BF8FEF715FE4FF033
:104550007E5101F0DDFD01464FF07E5001F09AFEE4
:10456000A968D4E902520446104602F025F929460A
:1045700002F056F8FEF700FE4FF07E5101F0C8FD44
:1045800001464FF07E5001F085FE0146204602F0C4
:1045900047F8BDE87040FEF7AFBD000070B50C46AF
:1045A000054600F04DF8064604F10801284600F0E3
:1045B0006DFC0146304602F033F8BDE87040FEF76E
:1045C0009BBD000070B582B00C46054601F0A0FD11
:1045D00006462846214602F023F80146304602F0FE
:1045E000EBF8019001A800214FF07E5200F0C8FCCA
:1045F000019802B070BD000080B582B002F010F8E2
:10460000019001A800214FF07E5200F0B9FC019802
:1046100002B080BD70B58468D1E9002520461146FE
:1046200001F017FE06462046294601F019FE002833
:1046300018BF4FF07E50002E08BF304670BD0000FE
:1046400070B58668D1E900453046214601F008FE84
:1046500000281CBF002070BD3046294601F0F9FD3E
:1046600000281CBF4FF07E5070BD3046214601F03F
:10467000FEFD60B92046294601F04AFD4FF07C510D
:1046800001F0CEFF0146304601F0DCFDA0B130461E
:10469000294601F0D7FD60B92046294601F038FDD2
:1046A0004FF07C5101F0BCFF0146304601F0DFFDC8
:1046B000C0B1002070BD00BF3046214602F07CF83A
:1046C00006462846214602F077F80146304601F0BA
:1046D000E1FD0146044601F01BFD0146204601F0C4
:1046E0009FFF70BD3046294602F066F80646284610
:1046F000214602F061F80146304601F0CBFD4FF053
:104700004041044601F08CFF214601F089FF4FF043
:104710007E5101F0FDFC70BD18B9062984BF002050
:10472000704790F85E30042900D86BB14A1F012A07
:1047300001D8012B08D005294FF0000208BF022B39
:1047400002D01046704700BF03A252F82110012288
:1047500081621046704700BF89380008E9360008BA
:1047600015390008D5380008A9390008E1390008D2
:10477000F9390008034600284FF0000008D000294E
:1047800048BF704701EB410003EB800082600120CD
:1047900070470000B0B582B01A2B4FF0000C24D83F
:1047A00018B352EA010420D4DDE9064EDDF820C03A
:1047B0002CB946F6F424C0F6000454F8234002EB6A
:1047C000820200EB820540F8224000202961C5E901
:1047D00001E001A800214FF07E52CDF804C000F0A6
:1047E000CFFB01984FF0010CE860604602B0B0BD0D
:1047F00000283ED004293CD8DFE801F004101C2832
:10480000360000BF012A34D846F66031C0F60001F8
:1048100051F8221081610120704700BF911E0229CA
:1048200027D846F66031C0F6000151F82210C16168
:1048300001207047012A1CD846F66031C0F60001FD
:1048400051F8221001610120704700BF02F0FE0103
:1048500002290ED146F66031C0F6000151F822104F
:1048600041610120704700BF142A22BFC2640120A9
:1048700070470020704700002DE9F04F81B083465B
:1048800000284FF0000063D0022961D8109F002F4C
:104890005ED0DDF84480B8F1000F59D04AF6AB2065
:1048A000DDF82CC04EF64F45CAF6AA20C4F6C46502
:1048B000A3FB0003ACFB0554DDF83CE00D984CF67F
:1048C000CD45CCF6CC45A0FB0506AEFB0505129800
:1048D000DB08CBF83C3023093409CBF844402C09E1
:1048E000CBF850006420DDF828A0CBF84840CBF886
:1048F0004C0044F2CD4044F2A544C0F60000C0F69E
:104900000004DDF838E0DDF83090CBE9002ACBE98F
:104910000404CBE9060443F6890043F6E112C0F62D
:104920000000C0F60002CBF84030CBE90C878BF8D2
:104930005E10CBE9029E002908BF02460020CBF89A
:104940002C00BCF1340F4FF00100CBF8282003D22B
:1049500001B0BDE8F08F00BF012B88BF1846411E93
:10496000032900F0030905D20024B9F1000F45D155
:1049700068E000BF0AF1B40520F0030040F2000A2D
:10498000C0F100080024C4F2C82A00BF55E92D1068
:1049900055E9206701F010FF514601F07BFC45F816
:1049A0009C0C3846314645F8A8BC01F005FF51463D
:1049B00001F070FC45F8680C55E9131045F874BC1B
:1049C00001F0FAFE514601F065FC45F8340C55E95A
:1049D000061045F840BC01F0EFFE514601F05AFCCC
:1049E000043C286045F80CBCA04505F1D005CDD1AC
:1049F000DDF828A06442B9F1000F23D0342004FB75
:104A000000A504FB00F168685AF8011001F0D4FE1B
:104A10000021C4F2C82101F03DFCB9F1010FA861E9
:104A2000C5F80CB00ED0D5E90D1001F0C5FE00217F
:104A3000C4F2C82101F02EFCB9F1020FE864C5F8F8
:104A400040B003D1012001B0BDE8F08F342004FB59
:104A500000A4D4E91A1001F0AFFE0021C4F2C8216D
:104A600001F018FCC4F880000120C4F874B001B053
:104A7000BDE8F08F10B58268D1E90040114601F021
:104A80009BFE214601F0CCFDFEF776FB4FF07E51F8
:104A900001F03EFB01464FF07E5001F0FBFB10BDE4
:104AA00080B50968806800F059FA002818BF4FF0F7
:104AB0007E5080BD10B58068D1E9004101F07CFED8
:104AC0000021C4F2201101F0ABFD214601F0E2FB10
:104AD000FEF712FB80F00040BDE81040FEF74CBB33
:104AE00080B582B001F014FB019001A800214FF0C5
:104AF0007E5200F045FA019802B080BD2DE9F041E8
:104B0000D1E900860D4607464046314601F054FE85
:104B1000044638462946FEF70DFD0146204601F0C1
:104B2000B9FB04463046314601F0F2FA214601F065
:104B3000EFFA414601F040FEBDE8F081B0B584686F
:104B4000D1E90050294601F037FE214601F068FD09
:104B5000294601F0DDFAB0BDB0B58468D1E9005056
:104B6000294601F029FE214601F05AFD294601F0AF
:104B7000CFFAB0BD2DE9F04F83B0D1E9007A846857
:104B800000200D46019000905046394601F014FE79
:104B90004FF07C51064601F043FD0146304601F0DE
:104BA0003FFD06462046314601F03AFDFEF766FC21
:104BB0000146384601F0ACFAEB4680460290584672
:104BC0002946FFF73DFD81464FF07E50214601F01A
:104BD000F3FD314601F024FDFEF750FC014650463E
:104BE00001F096FA0746029058462946FFF728FD3D
:104BF00005462046494601F0DFFDFEF77DFA0646F0
:104C00002046294601F0D8FDFEF776FA01463046E7
:104C100001F02DFB002818BF4746384603B0BDE819
:104C2000F08F00002DE9F0418768D0E90064D1E9F8
:104C3000005838464FF07E5100F090F950B12846A8
:104C4000002101F014FB002818BF34462046BDE8BF
:104C5000F08100BF3846002100F080F950B12846AD
:104C6000002101F004FB002808BF34462046BDE8BF
:104C7000F08100BF4FF07E50394601F00BFB002160
:104C8000CBF6807101F044FAFEF7D8FA294601F01C
:104C900001FB0146404601F08FFDBDE8F0810000B8
:104CA0002DE9F04784B0D1E90078846800200D46F2
:104CB000019000904046394601F07EFD4FF07C5156
:104CC000064601F0ADFC0146304601F0A9FC06465F
:104CD0004FF07E50214601F06FFD314601F0A0FCFF
:104CE000FEF7CCFB0146384601F012FAE94682464F
:104CF000029048462946FFF7A3FC07462046314666
:104D000001F08EFCFEF7BAFB0146404601F000FAC6
:104D10000646029048462946FFF792FC0546204683
:104D2000394601F049FDFEF7E7F9074620462946D6
:104D300001F042FDFEF7E0F90146384601F097FA2E
:104D4000002818BF5646304604B0BDE8F087000082
:104D50002DE9F04383B08668D1E90074D1E9028976
:104D60003046394601F028FD05462046394601F017
:104D700023FD0146284601F08DFA4FF07E5104468E
:104D80004FF07E5501F073FA002868464FF000019D
:104D90004FF07E5208BF2C46009400F0F1F8009CC2
:104DA0004846314601F008FD05464846414601F0B7
:104DB00003FD0146284601F06DFA054620462946C6
:104DC00001F055FA002801A84FF000014FF07E5283
:104DD00018BF2546019500F0D3F8019C002120461C
:104DE00001F030FA002818BF2046029002A80021E6
:104DF0004FF07E5200F0C4F8029803B0BDE8F08393
:104E00002DE9F04182B08468D1E900588F682046CE
:104E1000294601F0D1FC06464046294601F0CCFC6B
:104E20000146304601F036FA05463846214601F083
:104E3000C3FC04463846414601F0BEFC014620460C
:104E400001F028FA04462846214601F010FA00280D
:104E500068464FF000014FF07E5218BF2C46009478
:104E600000F08EF8009C0021204601F0EBF90028AC
:104E700018BF2046019001A800214FF07E5200F09B
:104E80007FF8019802B0BDE8F081000070B5866837
:104E9000D1E900453046214601F0E2F900281CBF67
:104EA0004FF07E5070BD3046294601F0D2F918BB54
:104EB0003046214601F0DBF960B92046294601F071
:104EC00027F94FF07C5101F0ABFB0146304601F071
:104ED000B9F998B13046294601F0B4F960B92046D5
:104EE000294601F015F94FF07C5101F099FB01467C
:104EF000304601F0BCF9D8B1002070BD30462146E3
:104F000001F05AFC06462846214601F055FC0146B0
:104F1000304601F0BFF94FF04041044601F080FBFC
:104F2000214601F07DFB4FF07E5101F0F1F870BD9C
:104F30003046294601F040FC06462846214601F04D
:104F40003BFC0146304601F0A5F90146044601F05C
:104F5000DFF80146204601F063FB70BD10B501F09B
:104F60002BFCFEF7C9F804464FF40000FEF7C4F826
:104F70000146204601F074F9002818BF012010BD39
:104F8000F0B581B00446006815460E46FEF74EF9AE
:104F900058B927683146384601F069F928B93846CA
:104FA000294601F05DF92E4620B92660002001B0A7
:104FB000F0BD00BF012001B0F0BD490050EAC120A2
:104FC00018BF04204A0D18BF40F0010040F2FF72E4
:104FD000B2EB515F08BF40F00200012808BF052076
:104FE00070472DE9F0414F1E00EBC7010446D1E99F
:104FF000000115461E4637F006020DD02A463346FC
:1050000000F07CFD7F1E04EBC703D3E9002300F012
:1050100081FA37F00602F1D1022F25D0042F13D0E8
:10502000062F18BFBDE8F0812A46334600F066FD22
:10503000D4E90A2300F06EFA2A46334600F05EFDFA
:10504000D4E9082300F066FA2A46334600F056FDFC
:10505000D4E9062300F05EFA2A46334600F04EFDFE
:10506000D4E9042300F056FA2A46334600F046FD00
:10507000D4E9022300F04EFA2A46334600F03EFD02
:10508000D4E90023BDE8F04100F044BA012201F068
:105090003ABC00F03FBA0000024A0020110701F0BC
:1050A00032BC000001FDFFFF2DE9F84F04460D461C
:1050B00021F0004000917349814211DC724988421D
:1050C00001DC06D12CB120462946BDE8F84FFFF798
:1050D000DDBF6E48002DCCBF6D496E49BDE8F88F2D
:1050E0006D49814211DD6D498142D8BF4FF0FF36D5
:1050F0006DDD20462946FFF760FF042808BFFFF753
:10510000CBFF20462946BDE8F88F6549654F25F05D
:105110000045814233DD6449814219DD0026324673
:105120004FF080432046294600F0F4F980468A4635
:1051300001222046294601F0E6FB00223B4600F012
:10514000CDFE4246534600F0A1FA04460D463EE02D
:1051500001260022BA463B462046294600F0DAF9ED
:1051600080460F46002253462046294600F0B6FEF0
:1051700042463B4600F08AFA04460D4627E04B497A
:1051800081421BDDDFF828A102260022534620467B
:10519000294600F0B3FC00223B4600F0BBF98046F4
:1051A0000F46002253462046294600F097FE42460D
:1051B0003B4600F06BFA04460D4608E00326224603
:1051C0002B4600203B4900F061FA04460D4622467A
:1051D0002B461046194600F091FC8B46824602464B
:1051E0000B4600F08BFC07460246334888460B46C8
:1051F00006217844FFF7F5FE52465B4600F07EFC40
:1052000082462E488B463A46434605217844FFF7AE
:10521000E8FE3A46434600F071FC02460B46002E7B
:10522000504659460CDA00F075F922462B4600F03C
:1052300065FC01B022462B46BDE8F04F00F05CBD96
:1052400000F068F922462B4600F058FC1C4A7A44CC
:1052500002EBC603D3E9002300F040FE22462B46B2
:1052600000F03CFE174A7A4402EBC603D3E9002360
:1052700000F042FD009A002AB8BF81F00041BDE86D
:10528000F88F0000000010440000F07F182D4454F7
:10529000FB21F93FFB21F9BF0000DC3F0000203E6D
:1052A0000000F33F0000F03F0000E63F00800340B5
:1052B0000000F83F0000F0BF0A180000C817000007
:1052C000661700002E1700002DE9F04D9446CCF132
:1052D000000423F000464CEA0404594F46EAD47413
:1052E0009A46884621F00042BC4206D8454240EA30
:1052F000050442EAD474BC4204D9BDE8F04D6246CC
:10530000FFF7C7BEAAF14055A5F17F6555EA0C0429
:105310000BD0022404EAAA744A4DDFF82CE144EAD7
:10532000D87452EA000B04D00CE0BDE8F04DFFF752
:10533000BBBE002C14BF012CBDE8F08D022C30D078
:10534000032C32D056EA0C0B0AD0BE4220D1BA420E
:1053500009D126F0804622F080423346114617E0FC
:1053600000291ADB25E0DFF8E4B0FB44002C04BF81
:10537000DBE90001BDE8F08D012C02BFDBE9000193
:1053800081F00041BDE8F08D022C0AD0032C0CD036
:10539000BA4212D1B8F1000F0BDA2A482C49BDE805
:1053A000F08D28462B49BDE8F08D28467146BDE8B2
:1053B000F08D24482849BDE8F08D921B12153C2A37
:1053C000C4BF204F244E10DCBAF1000FBEBF12F153
:1053D0003C0F00273E4608DB624600F057F921F0FB
:1053E0000041FFF761FE07460E4694B1012C08BF4D
:1053F00086F000460DD0194A194B022C384631462A
:1054000015D000F06BFD2A46BDE8F04D114B00F0C1
:1054100065BD002213463846314600F091FA04BFBC
:105420000220FAF7D9FE38463146BDE8F08D00F08B
:1054300055FD2A46BDE8F04D064B00F05DBC00006E
:105440000000F07F182D4454FB2109C0C216000053
:10545000FB21F9BFFB210940FB21F93F075C143315
:1054600026A6A13C2DE9F04106460F4600F050FC6F
:10547000041E0D4618BF0120284320F00040C0F153
:105480007F6000F1E040C00F0ED0301C18BF01203B
:10549000384320F00040C0F17F6000F1E040C00FD1
:1054A00004BF0120FAF798FE20462946BDE8F081A6
:1054B00021F0004201F00043A2F16052B2F5801FDA
:1054C00028BFD2F17F6C0BD95FEA001C43EAC2020D
:1054D00042EB507018BF704728BF20F001007047A2
:1054E000B2F5801FBCBF184670474FEA410C1CF54F
:1054F000001F02D2084601F05AB970B500F0A8FBAF
:1055000000000089FFF7F6BF4FF00040A0F58000D3
:105510007047000010B591EA030F48BF83F00043C5
:1055200000F1E484841A71EB030C05D2121943EBE9
:105530000C03001B61EB0C014FEA1154A4EB135C4C
:10554000DFF81CE11EEA430F18BF9EEA445F00F03B
:10555000748021EA045123EA0E0343F48013DCF142
:10556000200E32D322FA0CFE10EB0E0023FA0CFEB2
:1055700041EB0E01CCF1200E03FA0EFE10EB0E00F3
:10558000CCF1200E51F10001B1F5801F32D201EBB8
:10559000045112FA0EF2BDE8104058BF7047401C8B
:1055A00038BF5FEA420218BF7047002814BF20F0DE
:1055B000010041F100014FEA410313F5001F38BF1C
:1055C0007047A1F1C04100F091BB012A43EB0302F7
:1055D000ACF1200CDCF11F0E32BF4FF0000E23FAAD
:1055E0000CF310EB030041EB0451B4EB115FD0D08E
:1055F000A1EB045101F58011490801EB04515FEA68
:1056000030000ED350F1000038BF12FA0EFE08D160
:10561000BDE81040C9E7401C38BF5FEA4202CAD16A
:10562000C3E7BDE810404FEA410313F5001F38BF40
:105630007047A1F1C04100F059BB9EEA445F08D019
:1056400011EA5E0FBDE8104004BF01F000410020E8
:105650007047BDE8104070B500F0FAFA64FBBE3E3A
:105660000000E0FF02494FF0000001F01AB900BF4E
:105670000000F87F491058BFC1F140415B1058BF8E
:10568000C3F140438B42EFF3008070472DE9C041E6
:1056900030B4DFF8A4C23CEA111418BF3CEA13147A
:1056A00000F0ED801CEA111481EA030544EAD57488
:1056B00018BF1CEA131500F0C880A4EB050404F120
:1056C0007F7404F500344FF0004545EAC12145EAF6
:1056D000C32341EA505143EA52534FEAC0204FEAF4
:1056E000C222994208BF904200F09D804FEA1365A4
:1056F0000FF24416765D4FEA134506FB05F7C7F136
:10570000807706FB07F74FEAD737A7FB0368764297
:10571000A7FB06CEC8F5803838BFA8F1010807FB03
:1057200008E6A6FB028C4FF0000EE6FB03CEDCF190
:10573000000CCEF1004E38BFAEF1010EA6FB0C58A6
:105740004FF00007E6FB0E87A1FB08C6A0FB07CEC3
:1057500016EB0E064FF0000545F10005E1FB07656D
:1057600015F1E04E7EBFA4F580345FEA46066D4138
:1057700016F1800745F100054FEA172747EA05674C
:105780004FEA15254FEA0666A6F1DE46B6F1805FC0
:1057900020D9384605EBC47124F0010C01EB0C1143
:1057A000BCF1FE6F02D8F0BCBDE8008124425CBFB2
:1057B00001F5801E9EEAC47F02D4F0BCBDE80081E2
:1057C000244200F13980A1F1C041F0BCBDE80041A4
:1057D00000F08CBA4FEAD02040EA41504FEAD12184
:1057E0004FEAD22242EA43524FEAD323A7FB028672
:1057F00007FB036605FB02661EEA0E0F58BFA6EB09
:105800000056B6EB00564FEA520E4EEAC37E18EB36
:105810000E0E56EB530EBCD518EB02085E417F1CF2
:1058200055F10005B5E74FF480154FF000074FF034
:1058300000064FF00008ACE701F1C04101F0004163
:105840004FF00000F0BCBDE800810CEA131511EA2E
:105850000C1F00D00CE013EA0C1F00F026804FF064
:10586000000081EA030101F00041F0BCBDE80081C5
:10587000F0BCBDE8004181EA030100F037BAF0BC9A
:10588000BDE8004170B500F0E3F900BF097EFC3EC1
:1058900000F007B84FF0000081EA030101F0004179
:1058A000704781EA030100F021BAF0BCBDE8004175
:1058B00022494FF000007047FFFDFBF9F7F5F4F2C5
:1058C000F0EEEDEBE9E8E6E4E3E1E0DEDDDBDAD89B
:1058D000D7D5D4D3D1D0CFCDCCCBCAC8C7C6C5C4F9
:1058E000C2C1C0BFBEBDBCBBBAB9B8B7B6B5B4B310
:1058F000B2B1B0AFAEADACABAAA9A8A8A7A6A5A4FB
:10590000A3A3A2A1A09F9F9E9D9C9C9B9A999998BE
:105910009797969595949393929191908F8F8E8E61
:105920008D8C8C8B8B8A89898888878786858584EE
:1059300084838382828181800000FF070000F87FDA
:1059400051EA030C17D41CF5801F58BFBCF5801F0B
:1059500000F10680994218BF704708BF9042704717
:1059600007D711F5801F58BF13F5801F19D499422E
:105970007047894270471CF5801F08D5BCF5801F11
:10598000F7D58B4218BF704708BF824270474FF46B
:10599000001C1CEB410F38BF1CEB430F01D28B42A4
:1059A000704770B500F054F9922449004FF000514F
:1059B0004FF08053FFF75EBE10F0004248BF4042F8
:1059C000B0FA80F310FA03F10AD0C3F11D0303F516
:1059D000806302EB03524FEA415002EBD121704742
:1059E0004FF000007047B0FA80F310FA03F10AD0CC
:1059F000C3F11D0303F580634FEA03524FEA4150A0
:105A000002EBD12170474FF00000704751EA030CC0
:105A100017D41CF5801F58BFBCF5801F00F106800D
:105A2000994218BF704708BF9042704707D711F5D9
:105A3000801F58BF13F5801F19D4994270478942BF
:105A400070471CF5801F08D5BCF5801FF7D58B4229
:105A500018BF704708BF824270474FF4001C1CEB10
:105A6000410F38BF1CEB430F01D28B42704770B51A
:105A700000F0EEF8922449004FF080514FF00053AF
:105A8000FFF7F8BD51EA030C17D41CF5801F58BF6F
:105A9000BCF5801F00F10680994218BF704708BF0F
:105AA0009042704707D711F5801F58BF13F5801F2C
:105AB00019D499427047894270471CF5801F08D558
:105AC000BCF5801FF7D58B4218BF704708BF8242D4
:105AD00070474FF4001C1CEB410F38BF1CEB430F09
